:0310CB0025780085
:10102000010800011700011800011400C189C18ADC
:0F10300002090000050BFF010203FF0210000080
:10100000E4FDFCC3ED9FEC9E5015E4FBFA0BBB0026
:0F101000010ABA07F8BBD0F50DBD00010C80E452
:01101F0022AE
:0D10A9008F178F14C292D293D296C2972255
:0F109A00751708751408D292C293C296D2972286
:0A10C100751408D296C297C295225A
:0B10B600751706751404C292D2932235
:10104000300A18E508D395175004D2958002C2954E
:0E105000E508C394324006E4F50822C295225A
:10105E00300918E518D395145004D2948002C29426
:0E106E00E518C394324006E4F51822C294221D
:03000B00020FDF02
:100FDF00C0E0C0D0758CFC758A18050AE50A70024E
:100FEF0005090508051812104012105ED0D0D0E088
:010FFF0032BF
:10107C00D3EF9400EE940040147D787C00ED1D704D
:0D108C00011CED4C70F7EF1F70E61E80E3B5
:011099002234
:060FBD008B238A24892524
:100FC300E4FFAB23AA24A9258F82758300120CF4B6
:0B0FD300F5993099FDC2990FBF05E7AA
:010FDE0022F0
:100F52007526FF7527107528CBE51625E0F52AE5DD
:100F62001533F5297B007A00791912085C75260081
:100F72007527007528007529107B007A00791912EF
:100F82000B5C8E128F138F0EEEF50D7B007A0079BB
:040F92000B020FBD82
:100ED50075150075160F758921758CFC758A18D2E4
:100EE5008CD2A9759850758DFD758BFDD28ED2AFBC
:100EF5000511E51170020510AF16AE151210A920E7
:100F0500B41AC3E5169432E515940050080516E5A4
:100F150016700205157F287E0012107C20B51AD3A5
:100F2500E5169400E51594004008E51615167002BF
:100F350015157F287E0012107CE511B420B2E5104E
:0D0F4500B44EAD120F52E4F510F51180A36B
:03000000020E49A4
:0C0E4900787FE4F6D8FD758136020E902B
:100CF400BB010CE58229F582E5833AF583E02250B5
:100D040006E92582F8E622BBFE06E92582F8E222FE
:0D0D1400E58229F582E5833AF583E4932218
:10080000E5322426F8E605322278233007027826DE
:10081000E475F001120DA9020D212000EB7F2ED20C
:10082000008018EF540F2490D43440D4FF30040BD0
:10083000EF24BFB41A0050032461FFE533600215B2
:10084000330536E5367002053530070D7823E4753B
:10085000F001120DA9EF020D3A020F967403D207B0
:100860008003E4C207F5328B238A248925E4F5331B
:10087000F535F536E53360077F2012083B80F575C6
:1008800034FFC201C200C202C203C205C206C208CE
:10089000120809FF700D3007057F0012084CAF36B3
:1008A000AE3522B4255FC2D5C204120809FF24D098
:1008B000B40A00501A75F00A783330D50508B6FF2F
:1008C0000106C6A426F620D5047002D20380D924DE
:1008D000CFB41A00EF5004C2E5D204020A4CD20190
:1008E00080C6D20080C0D20280BCD2D580BAD205E8
:1008F00080B47F2012083B2002077401B53300400A
:10090000F1120800FF12083B020874D208D20680D8
:1009100095120800FB120800FA120800F94A4B7001
:1009200006791D7A0B7BFF20022EE533602A7E00BC
:100930008E82758300120CF460060EEE653470F042
:10094000C2D5EBC0E0EAC0E0E9C0E0EE120A93D005
:10095000E0F9D0E0FAD0E0FB120D21FF60AAEBC075
:10096000E0EAC0E0E9C0E012083BD0E02401F9D0A1
:10097000E03400FAD0E0FBE5340460DCD534D98003
:10098000877BFF7A0A798FD202809C791080027966
:1009900008C206C2088008D2D5790A8004790AC242
:1009A000D5E534047002F534E4FAFDFEFF120800C8
:1009B000FC7B08200113120800FD7B1030000A1296
:1009C0000800FE120800FF7B20EC3382D592D55040
:1009D00013C3E43000069FFFE49EFEE42001039D64
:1009E000FDE49CFCE4CBF8C201EC700CCFCECDCC86
:1009F000E824F8F870F38017C3EF33FFEE33FEED11
:100A000033FDEC33FCEB33FB994002FB0FD8E9EBF1
:100A1000300105F8D0E0C448B201C0E00AEC4D4E08
:100A20004F78207B0070C2EAB5340040BCC0E012B1
:100A30000A95D0F0D0E0200104C4C0E0C4B201C0E7
:100A4000F0120824D0F0D5F0EB020874120E080959
:100A50001153098B5808E24C08DE42098F4F099761
:0F0A60004409974908F743099D550981460981C3
:100A6F00450981470B3D5008E62D08EA2E090D2B4D
:100A7F0008EE23090B200B262A08A64800000905BB
:100A8F003F3F3F00790AA2D5200314300509B91062
:100A9F00020404B9080104A2D52006025001042063
:100AAF0002689202B533005034C0E07F2030031942
:100ABF007F30A20272067205500F120AECC202C2F8
:100ACF0006C205C2087F30800F300503E9C0E0126F
:100ADF00083B300503D0E0F9D0E0B533CC30051733
:100AEF007F30B9100C12083B7F583004077F788095
:100AFF0003B9080312083B3002057F2D02083B7F24
:100B0F00202008F87F2B2006F322920280CF286E38
:100B1F00756C6C2900D2011208003001F8C20178FF
:100B2F003330D50108F60208A62D50434958120854
:100B3F00002403B405004001E4900B389312082CF5
:0D0B4F00743A12082CD20375330402098B8E
:100B5C008B238A248925E4F52FF52EF52DF52CF51C
:100B6C002AF52BE527452845266012EBC0E0EAC0A4
:100B7C00E0E9C0E0AB26AA27A928120DB9AB2305E2
:100B8C0025E525AA247002052414F9120D21F5304F
:100B9C00C394094007E530D3940D40E1E53064205F
:100BAC0060DBE530B42D05432B038016E530B42B08
:100BBC0005432B01800C74FF2525F52574FF352486
:100BCC00F524E52960046410703FAB23AA24A92501
:100BDC00120D2164306009E529702E75290A8029CF
:100BEC00900001120CF4FF64786004EFB4581343C6
:100BFC002B0175291074022525F525E43524F524DF
:100C0C008007E5297003752908AB230525E525AA7E
:100C1C00247002052414F9120D21F530C39461409F
:100C2C000AE530D3947A50035330DF74D02530F575
:100C3C0030C3940A400CE5309411405374F92530BC
:100C4C00F530E530D395295046432B01AF297E0072
:100C5C00E4FCFDAB2FAA2EA92DA82C120D4CC8EC30
:100C6C00C8C9EDC9CAEECACBEFCBE4FCFDFEEB253F
:100C7C0030F52FEE3AF52EED39F52DEC38F52CAF8D
:100C8C002FAE2EAD2DFC335080432B04020C15E5FA
:100C9C002B20E006E4FFFEFDFC22E5274528452637
:100CAC00601EAB23E52524FFF9E52434FFFAEBC0E5
:100CBC00E0EAC0E0E9C0E0AB26AA27A928120DB9EA
:100CCC00E52B30E21230E107E4FFFEFD7C8022745C
:100CDC00FFFFFEFD7C7F22E52BAF2FAE2EAD2DACA2
:080CEC002C30E103020D9B22F4
:100E5500020ED5E493A3F8E493A34003F68001F2D0
:100E650008DFF48029E493A3F85407240CC8C3339E
:100E7500C4540F4420C8834004F456800146F6DF6D
:100E8500E4800B0102040810204080901020E47ECD
:100E9500019360BCA3FF543F30E509541FFEE49362
:100EA500A360010ECF54C025E060A840B8E493A329
:100EB500FAE493A3F8E493A3C8C582C8CAC583CA54
:100EC500F0A3C8C582C8CAC583CADFE9DEE780BE0C
:01103F0000B0
:100D2100BB010689828A83E0225002E722BBFE02D0
:090D3100E32289828A83E4932203
:100D3A00BB010689828A83F0225002F722BBFE0198
:020D4A00F32292
:100D4C00E88FF0A4CC8BF0A42CFCE98EF0A42CFC46
:100D5C008AF0EDA42CFCEA8EF0A4CDA8F08BF0A4C4
:100D6C002DCC3825F0FDE98FF0A42CCD35F0FCEB23
:100D7C008EF0A4FEA9F0EB8FF0A4CFC5F02ECD39E8
:0F0D8C00FEE43CFCEAA42DCE35F0FDE43CFC2255
:0E0D9B00C3E49FFFE49EFEE49DFDE49CFC2269
:100DA900FAE6FB0808E6F925F0F618E6CA3AF6224B
:100DB900BB011A89828A83D0F0D0E0F8D0E0F9D05B
:100DC900E0FAD0E0FBE8C0E0C0F0020E375016E9C7
:100DD900F8D083D082D0E0F9D0E0FAD0E0FBC0822D
:100DE900C083020E2EBBFE16E9F8D083D082D0E074
:0F0DF900F9D0E0FAD0E0FBC082C083020E4022A6
:100E0800D083D082F8E4937012740193700DA3A379
:100E180093F8740193F5828883E47374029368608D
:060E2800EFA3A3A380DF8D
:100F9600EFB40A07740D120FA1740A309811A899BC
:100FA600B8130CC2983098FDA899C298B811F630BB
:070FB60099FDC299F5992293
:090E2E00EBF608EAF608E9F622E9
:090E3700EBF0A3EAF0A3E9F022BC
:090E4000EBF208EAF208E9F222E3
:00000001FF
